{
  "_format": "hh-sol-artifact-1",
  "contractName": "DocumentTimestamp",
  "sourceName": "contracts/DocumentTimestamp.sol",
  "abi": [
    {
      "anonymous": false,
      "inputs": [
        {
          "indexed": true,
          "internalType": "address",
          "name": "user",
          "type": "address"
        },
        {
          "indexed": true,
          "internalType": "bytes32",
          "name": "hash",
          "type": "bytes32"
        },
        {
          "indexed": false,
          "internalType": "uint256",
          "name": "timestamp",
          "type": "uint256"
        }
      ],
      "name": "DocumentStamped",
      "type": "event"
    },
    {
      "inputs": [
        {
          "internalType": "bytes32",
          "name": "hash",
          "type": "bytes32"
        }
      ],
      "name": "storeHash",
      "outputs": [
        {
          "internalType": "uint256",
          "name": "",
          "type": "uint256"
        }
      ],
      "stateMutability": "nonpayable",
      "type": "function"
    },
    {
      "inputs": [
        {
          "internalType": "bytes32",
          "name": "hash",
          "type": "bytes32"
        }
      ],
      "name": "verifyHash",
      "outputs": [
        {
          "internalType": "bool",
          "name": "",
          "type": "bool"
        },
        {
          "internalType": "uint256",
          "name": "",
          "type": "uint256"
        }
      ],
      "stateMutability": "view",
      "type": "function"
    }
  ],
  "bytecode": "0x608060405234801561001057600080fd5b50610330806100206000396000f3fe608060405234801561001057600080fd5b50600436106100365760003560e01c80637fe888851461003b578063ef020f4a1461006b575b600080fd5b610055600480360381019061005091906101d8565b61009c565b604051610062919061021e565b60405180910390f35b610085600480360381019061008091906101d8565b610160565b604051610093929190610254565b60405180910390f35b60008060008084815260200190815260200160002054146100f2576040517f08c379a00000000000000000000000000000000000000000000000000000000081526004016100e9906102da565b60405180910390fd5b4260008084815260200190815260200160002081905550813373ffffffffffffffffffffffffffffffffffffffff167f0ff9a1bd948f5eaa7b7f51c4af7255b60e245e3f9142aa01210c832218fa527142604051610150919061021e565b60405180910390a3429050919050565b60008060008060008581526020019081526020016000205490506000811461018f576001819250925050610198565b60008092509250505b915091565b600080fd5b6000819050919050565b6101b5816101a2565b81146101c057600080fd5b50565b6000813590506101d2816101ac565b92915050565b6000602082840312156101ee576101ed61019d565b5b60006101fc848285016101c3565b91505092915050565b6000819050919050565b61021881610205565b82525050565b6000602082019050610233600083018461020f565b92915050565b60008115159050919050565b61024e81610239565b82525050565b60006040820190506102696000830185610245565b610276602083018461020f565b9392505050565b600082825260208201905092915050565b7f446f63756d656e7420616c7265616479207374616d7065640000000000000000600082015250565b60006102c460188361027d565b91506102cf8261028e565b602082019050919050565b600060208201905081810360008301526102f3816102b7565b905091905056fea264697066735822122026376413097e00b4ec1dd2e44a04ee0312a2c5f82f27b6220fa154499d40921864736f6c63430008180033",
  "linkReferences": {},
  "deployedLinkReferences": {}
}